{
  "contractName": "BadgeReg",
  "abi": [
    {
      "constant": false,
      "inputs": [
        {
          "name": "_new",
          "type": "address"
        }
      ],
      "name": "setOwner",
      "outputs": [],
      "payable": false,
      "stateMutability": "nonpayable",
      "type": "function"
    },
    {
      "constant": true,
      "inputs": [],
      "name": "owner",
      "outputs": [
        {
          "name": "",
          "type": "address"
        }
      ],
      "payable": false,
      "stateMutability": "view",
      "type": "function"
    },
    {
      "constant": true,
      "inputs": [],
      "name": "fee",
      "outputs": [
        {
          "name": "",
          "type": "uint256"
        }
      ],
      "payable": false,
      "stateMutability": "view",
      "type": "function"
    },
    {
      "anonymous": false,
      "inputs": [
        {
          "indexed": true,
          "name": "name",
          "type": "bytes32"
        },
        {
          "indexed": true,
          "name": "id",
          "type": "uint256"
        },
        {
          "indexed": false,
          "name": "addr",
          "type": "address"
        }
      ],
      "name": "Registered",
      "type": "event"
    },
    {
      "anonymous": false,
      "inputs": [
        {
          "indexed": true,
          "name": "name",
          "type": "bytes32"
        },
        {
          "indexed": true,
          "name": "id",
          "type": "uint256"
        }
      ],
      "name": "Unregistered",
      "type": "event"
    },
    {
      "anonymous": false,
      "inputs": [
        {
          "indexed": true,
          "name": "id",
          "type": "uint256"
        },
        {
          "indexed": true,
          "name": "key",
          "type": "bytes32"
        },
        {
          "indexed": false,
          "name": "value",
          "type": "bytes32"
        }
      ],
      "name": "MetaChanged",
      "type": "event"
    },
    {
      "anonymous": false,
      "inputs": [
        {
          "indexed": true,
          "name": "id",
          "type": "uint256"
        },
        {
          "indexed": false,
          "name": "addr",
          "type": "address"
        }
      ],
      "name": "AddressChanged",
      "type": "event"
    },
    {
      "anonymous": false,
      "inputs": [
        {
          "indexed": true,
          "name": "old",
          "type": "address"
        },
        {
          "indexed": true,
          "name": "current",
          "type": "address"
        }
      ],
      "name": "NewOwner",
      "type": "event"
    },
    {
      "constant": false,
      "inputs": [
        {
          "name": "_addr",
          "type": "address"
        },
        {
          "name": "_name",
          "type": "bytes32"
        }
      ],
      "name": "register",
      "outputs": [
        {
          "name": "",
          "type": "bool"
        }
      ],
      "payable": true,
      "stateMutability": "payable",
      "type": "function"
    },
    {
      "constant": false,
      "inputs": [
        {
          "name": "_addr",
          "type": "address"
        },
        {
          "name": "_name",
          "type": "bytes32"
        },
        {
          "name": "_owner",
          "type": "address"
        }
      ],
      "name": "registerAs",
      "outputs": [
        {
          "name": "",
          "type": "bool"
        }
      ],
      "payable": true,
      "stateMutability": "payable",
      "type": "function"
    },
    {
      "constant": false,
      "inputs": [
        {
          "name": "_id",
          "type": "uint256"
        }
      ],
      "name": "unregister",
      "outputs": [],
      "payable": false,
      "stateMutability": "nonpayable",
      "type": "function"
    },
    {
      "constant": false,
      "inputs": [
        {
          "name": "_fee",
          "type": "uint256"
        }
      ],
      "name": "setFee",
      "outputs": [],
      "payable": false,
      "stateMutability": "nonpayable",
      "type": "function"
    },
    {
      "constant": true,
      "inputs": [],
      "name": "badgeCount",
      "outputs": [
        {
          "name": "",
          "type": "uint256"
        }
      ],
      "payable": false,
      "stateMutability": "view",
      "type": "function"
    },
    {
      "constant": true,
      "inputs": [
        {
          "name": "_id",
          "type": "uint256"
        }
      ],
      "name": "badge",
      "outputs": [
        {
          "name": "addr",
          "type": "address"
        },
        {
          "name": "name",
          "type": "bytes32"
        },
        {
          "name": "owner",
          "type": "address"
        }
      ],
      "payable": false,
      "stateMutability": "view",
      "type": "function"
    },
    {
      "constant": true,
      "inputs": [
        {
          "name": "_addr",
          "type": "address"
        }
      ],
      "name": "fromAddress",
      "outputs": [
        {
          "name": "id",
          "type": "uint256"
        },
        {
          "name": "name",
          "type": "bytes32"
        },
        {
          "name": "owner",
          "type": "address"
        }
      ],
      "payable": false,
      "stateMutability": "view",
      "type": "function"
    },
    {
      "constant": true,
      "inputs": [
        {
          "name": "_name",
          "type": "bytes32"
        }
      ],
      "name": "fromName",
      "outputs": [
        {
          "name": "id",
          "type": "uint256"
        },
        {
          "name": "addr",
          "type": "address"
        },
        {
          "name": "owner",
          "type": "address"
        }
      ],
      "payable": false,
      "stateMutability": "view",
      "type": "function"
    },
    {
      "constant": true,
      "inputs": [
        {
          "name": "_id",
          "type": "uint256"
        },
        {
          "name": "_key",
          "type": "bytes32"
        }
      ],
      "name": "meta",
      "outputs": [
        {
          "name": "",
          "type": "bytes32"
        }
      ],
      "payable": false,
      "stateMutability": "view",
      "type": "function"
    },
    {
      "constant": false,
      "inputs": [
        {
          "name": "_id",
          "type": "uint256"
        },
        {
          "name": "_newAddr",
          "type": "address"
        }
      ],
      "name": "setAddress",
      "outputs": [],
      "payable": false,
      "stateMutability": "nonpayable",
      "type": "function"
    },
    {
      "constant": false,
      "inputs": [
        {
          "name": "_id",
          "type": "uint256"
        },
        {
          "name": "_key",
          "type": "bytes32"
        },
        {
          "name": "_value",
          "type": "bytes32"
        }
      ],
      "name": "setMeta",
      "outputs": [],
      "payable": false,
      "stateMutability": "nonpayable",
      "type": "function"
    },
    {
      "constant": false,
      "inputs": [],
      "name": "drain",
      "outputs": [],
      "payable": false,
      "stateMutability": "nonpayable",
      "type": "function"
    }
  ],
  "bytecode": "0x6080604052336000806101000a81548173ffffffffffffffffffffffffffffffffffffffff021916908373ffffffffffffffffffffffffffffffffffffffff160217905550670de0b6b3a764000060045534801561005c57600080fd5b506112958061006c6000396000f3006080604052600436106100db576000357c0100000000000000000000000000000000000000000000000000000000900463ffffffff16806313af4035146100e05780631e7a505f146101235780632c0f5f591461017f5780635b8066451461022a57806369fe0e2d146102555780637958533a146102825780638da5cb5b146102d95780639890220b14610330578063a02b161e14610347578063ac4ce2c614610374578063b72e717d146103c1578063c0f6faed1461045a578063dd93890b14610509578063ddbcb5cb14610552578063ddca3f43146105ce575b600080fd5b3480156100ec57600080fd5b50610121600480360381019080803573ffffffffffffffffffffffffffffffffffffffff1690602001909291905050506105f9565b005b610165600480360381019080803573ffffffffffffffffffffffffffffffffffffffff1690602001909291908035600019169060200190929190505050610712565b604051808215151515815260200191505060405180910390f35b34801561018b57600080fd5b506101ae6004803603810190808035600019169060200190929190505050610727565b604051808481526020018373ffffffffffffffffffffffffffffffffffffffff1673ffffffffffffffffffffffffffffffffffffffff1681526020018273ffffffffffffffffffffffffffffffffffffffff1673ffffffffffffffffffffffffffffffffffffffff168152602001935050505060405180910390f35b34801561023657600080fd5b5061023f6107c3565b6040518082815260200191505060405180910390f35b34801561026157600080fd5b50610280600480360381019080803590602001909291905050506107d0565b005b34801561028e57600080fd5b506102bb600480360381019080803590602001909291908035600019169060200190929190505050610835565b60405180826000191660001916815260200191505060405180910390f35b3480156102e557600080fd5b506102ee610879565b604051808273ffffffffffffffffffffffffffffffffffffffff1673ffffffffffffffffffffffffffffffffffffffff16815260200191505060405180910390f35b34801561033c57600080fd5b5061034561089e565b005b34801561035357600080fd5b5061037260048036038101908080359060200190929190505050610959565b005b34801561038057600080fd5b506103bf60048036038101908080359060200190929190803573ffffffffffffffffffffffffffffffffffffffff169060200190929190505050610b41565b005b3480156103cd57600080fd5b50610402600480360381019080803573ffffffffffffffffffffffffffffffffffffffff169060200190929190505050610da5565b6040518084815260200183600019166000191681526020018273ffffffffffffffffffffffffffffffffffffffff1673ffffffffffffffffffffffffffffffffffffffff168152602001935050505060405180910390f35b34801561046657600080fd5b5061048560048036038101908080359060200190929190505050610e44565b604051808473ffffffffffffffffffffffffffffffffffffffff1673ffffffffffffffffffffffffffffffffffffffff16815260200183600019166000191681526020018273ffffffffffffffffffffffffffffffffffffffff1673ffffffffffffffffffffffffffffffffffffffff168152602001935050505060405180910390f35b34801561051557600080fd5b506105506004803603810190808035906020019092919080356000191690602001909291908035600019169060200190929190505050610ec6565b005b6105b4600480360381019080803573ffffffffffffffffffffffffffffffffffffffff1690602001909291908035600019169060200190929190803573ffffffffffffffffffffffffffffffffffffffff169060200190929190505050610fcf565b604051808215151515815260200191505060405180910390f35b3480156105da57600080fd5b506105e3611263565b6040518082815260200191505060405180910390f35b6000809054906101000a900473ffffffffffffffffffffffffffffffffffffffff1673ffffffffffffffffffffffffffffffffffffffff163373ffffffffffffffffffffffffffffffffffffffff1614151561065457600080fd5b8073ffffffffffffffffffffffffffffffffffffffff166000809054906101000a900473ffffffffffffffffffffffffffffffffffffffff1673ffffffffffffffffffffffffffffffffffffffff167f70aea8d848e8a90fb7661b227dc522eb6395c3dac71b63cb59edd5c9899b236460405160405180910390a3806000806101000a81548173ffffffffffffffffffffffffffffffffffffffff021916908373ffffffffffffffffffffffffffffffffffffffff16021790555050565b600061071f838333610fcf565b905092915050565b60008060008060016002600087600019166000191681526020019081526020016000205403935060038481548110151561075d57fe5b906000526020600020906004020190508060000160009054906101000a900473ffffffffffffffffffffffffffffffffffffffff1692508060020160009054906101000a900473ffffffffffffffffffffffffffffffffffffffff169150509193909250565b6000600380549050905090565b6000809054906101000a900473ffffffffffffffffffffffffffffffffffffffff1673ffffffffffffffffffffffffffffffffffffffff163373ffffffffffffffffffffffffffffffffffffffff1614151561082b57600080fd5b8060048190555050565b600060038381548110151561084657fe5b90600052602060002090600402016003016000836000191660001916815260200190815260200160002054905092915050565b6000809054906101000a900473ffffffffffffffffffffffffffffffffffffffff1681565b6000809054906101000a900473ffffffffffffffffffffffffffffffffffffffff1673ffffffffffffffffffffffffffffffffffffffff163373ffffffffffffffffffffffffffffffffffffffff161415156108f957600080fd5b3373ffffffffffffffffffffffffffffffffffffffff166108fc3073ffffffffffffffffffffffffffffffffffffffff16319081150290604051600060405180830381858888f19350505050158015610956573d6000803e3d6000fd5b50565b6000809054906101000a900473ffffffffffffffffffffffffffffffffffffffff1673ffffffffffffffffffffffffffffffffffffffff163373ffffffffffffffffffffffffffffffffffffffff161415156109b457600080fd5b806003828154811015156109c457fe5b906000526020600020906004020160010154600019167f844e89a9d524dabb877007aa0e9c395e8938fcfee93ece70c2cd0353db79c8e560405160405180910390a360016000600383815481101515610a1957fe5b906000526020600020906004020160000160009054906101000a900473ffffffffffffffffffffffffffffffffffffffff1673ffffffffffffffffffffffffffffffffffffffff1673ffffffffffffffffffffffffffffffffffffffff1681526020019081526020016000206000905560026000600383815481101515610a9c57fe5b9060005260206000209060040201600101546000191660001916815260200190815260200160002060009055600381815481101515610ad757fe5b9060005260206000209060040201600080820160006101000a81549073ffffffffffffffffffffffffffffffffffffffff021916905560018201600090556002820160006101000a81549073ffffffffffffffffffffffffffffffffffffffff0219169055505050565b6000823373ffffffffffffffffffffffffffffffffffffffff16600382815481101515610b6a57fe5b906000526020600020906004020160020160009054906101000a900473ffffffffffffffffffffffffffffffffffffffff1673ffffffffffffffffffffffffffffffffffffffff16141515610bbe57610d9f565b826000600160008373ffffffffffffffffffffffffffffffffffffffff1673ffffffffffffffffffffffffffffffffffffffff16815260200190815260200160002054141515610c0d57610d9d565b600385815481101515610c1c57fe5b906000526020600020906004020160000160009054906101000a900473ffffffffffffffffffffffffffffffffffffffff16925083600386815481101515610c6057fe5b906000526020600020906004020160000160006101000a81548173ffffffffffffffffffffffffffffffffffffffff021916908373ffffffffffffffffffffffffffffffffffffffff1602179055506000600160008573ffffffffffffffffffffffffffffffffffffffff1673ffffffffffffffffffffffffffffffffffffffff1681526020019081526020016000208190555084600160008673ffffffffffffffffffffffffffffffffffffffff1673ffffffffffffffffffffffffffffffffffffffff16815260200190815260200160002081905550847fa5d871c0e725767cd5aefc99c53aeca35f09dcc268145cbb13b74a7e2f48f19685604051808273ffffffffffffffffffffffffffffffffffffffff1673ffffffffffffffffffffffffffffffffffffffff16815260200191505060405180910390a25b505b50505050565b60008060008060018060008773ffffffffffffffffffffffffffffffffffffffff1673ffffffffffffffffffffffffffffffffffffffff16815260200190815260200160002054039350600384815481101515610dfe57fe5b90600052602060002090600402019050806001015492508060020160009054906101000a900473ffffffffffffffffffffffffffffffffffffffff169150509193909250565b600080600080600385815481101515610e5957fe5b906000526020600020906004020190508060000160009054906101000a900473ffffffffffffffffffffffffffffffffffffffff169350806001015492508060020160009054906101000a900473ffffffffffffffffffffffffffffffffffffffff169150509193909250565b823373ffffffffffffffffffffffffffffffffffffffff16600382815481101515610eed57fe5b906000526020600020906004020160020160009054906101000a900473ffffffffffffffffffffffffffffffffffffffff1673ffffffffffffffffffffffffffffffffffffffff16141515610f4157610fc9565b81600385815481101515610f5157fe5b90600052602060002090600402016003016000856000191660001916815260200190815260200160002081600019169055508260001916847f7991c63a749706fd298fc2387764d640be6e714307b6357b1d3c2ce35cba3b528460405180826000191660001916815260200191505060405180910390a35b50505050565b6000600454341015610fe05761125c565b836000600160008373ffffffffffffffffffffffffffffffffffffffff1673ffffffffffffffffffffffffffffffffffffffff1681526020019081526020016000205414151561102f5761125a565b8360006002600083600019166000191681526020019081526020016000205414151561105a57611258565b60036060604051908101604052808873ffffffffffffffffffffffffffffffffffffffff168152602001876000191681526020018673ffffffffffffffffffffffffffffffffffffffff168152509080600181540180825580915050906001820390600052602060002090600402016000909192909190915060008201518160000160006101000a81548173ffffffffffffffffffffffffffffffffffffffff021916908373ffffffffffffffffffffffffffffffffffffffff1602179055506020820151816001019060001916905560408201518160020160006101000a81548173ffffffffffffffffffffffffffffffffffffffff021916908373ffffffffffffffffffffffffffffffffffffffff160217905550505050600380549050600160008873ffffffffffffffffffffffffffffffffffffffff1673ffffffffffffffffffffffffffffffffffffffff168152602001908152602001600020819055506003805490506002600087600019166000191681526020019081526020016000208190555060016003805490500385600019167febbfb6376bef000063e6e33494e4c543a6197091a04eb6a6f55013d85a1c538688604051808273ffffffffffffffffffffffffffffffffffffffff1673ffffffffffffffffffffffffffffffffffffffff16815260200191505060405180910390a3600192505b505b505b9392505050565b600454815600a165627a7a723058204badedd3a65b6e7182241b3168e6eed83082cb72adb56a2453bb366febab24d20029",
  "source": "//! The badge-registry contract.\n//!\n//! Copyright 2016 Gavin Wood, Parity Technologies Ltd.\n//!\n//! Licensed under the Apache License, Version 2.0 (the \"License\");\n//! you may not use this file except in compliance with the License.\n//! You may obtain a copy of the License at\n//!\n//!     http://www.apache.org/licenses/LICENSE-2.0\n//!\n//! Unless required by applicable law or agreed to in writing, software\n//! distributed under the License is distributed on an \"AS IS\" BASIS,\n//! WITHOUT WARRANTIES OR CONDITIONS OF ANY KIND, either express or implied.\n//! See the License for the specific language governing permissions and\n//! limitations under the License.\n\npragma solidity ^0.4.17;\n\nimport \"./Owned.sol\";\n\n\ncontract BadgeReg is Owned {\n\tstruct Badge {\n\t\taddress addr;\n\t\tbytes32 name;\n\t\taddress owner;\n\t\tmapping (bytes32 => bytes32) meta;\n\t}\n\n\tmodifier whenFeePaid {\n\t\tif (msg.value < fee)\n\t\t\treturn;\n\t\t_;\n\t}\n\tmodifier whenAddressFree(address _addr) {\n\t\tif (mapFromAddress[_addr] != 0)\n\t\t\treturn;\n\t\t_;\n\t}\n\tmodifier whenNameFree(bytes32 _name) {\n\t\tif (mapFromName[_name] != 0)\n\t\t\treturn;\n\t\t_;\n\t}\n\tmodifier whenHasName(bytes32 _name) {\n\t\tif (mapFromName[_name] == 0)\n\t\t\treturn;\n\t\t_;\n\t}\n\tmodifier onlyBadgeOwner(uint _id) {\n\t\tif (badges[_id].owner != msg.sender)\n\t\t\treturn;\n\t\t_;\n\t}\n\n\tevent Registered(bytes32 indexed name, uint indexed id, address addr);\n\tevent Unregistered(bytes32 indexed name, uint indexed id);\n\tevent MetaChanged(uint indexed id, bytes32 indexed key, bytes32 value);\n\tevent AddressChanged(uint indexed id, address addr);\n\n\tfunction register(address _addr, bytes32 _name) payable public returns (bool) {\n\t\treturn registerAs(_addr, _name, msg.sender);\n\t}\n\n\tfunction registerAs(address _addr, bytes32 _name, address _owner)\n\t\tpayable whenFeePaid whenAddressFree(_addr) whenNameFree(_name)\n\t\tpublic returns (bool)\n\t{\n\t\tbadges.push(Badge(_addr, _name, _owner));\n\t\tmapFromAddress[_addr] = badges.length;\n\t\tmapFromName[_name] = badges.length;\n\t\temit Registered(_name, badges.length - 1, _addr);\n\t\treturn true;\n\t}\n\n\tfunction unregister(uint _id) onlyOwner public {\n\t\temit Unregistered(badges[_id].name, _id);\n\t\tdelete mapFromAddress[badges[_id].addr];\n\t\tdelete mapFromName[badges[_id].name];\n\t\tdelete badges[_id];\n\t}\n\n\tfunction setFee(uint _fee) onlyOwner public {\n\t\tfee = _fee;\n\t}\n\n\tfunction badgeCount() view public returns (uint) { return badges.length; }\n\n\tfunction badge(uint _id) view public returns (address addr, bytes32 name, address owner) {\n\t\tvar t = badges[_id];\n\t\taddr = t.addr;\n\t\tname = t.name;\n\t\towner = t.owner;\n\t}\n\n\tfunction fromAddress(address _addr) view public returns (uint id, bytes32 name, address owner) {\n\t\tid = mapFromAddress[_addr] - 1;\n\t\tvar t = badges[id];\n\t\tname = t.name;\n\t\towner = t.owner;\n\t}\n\n\tfunction fromName(bytes32 _name) view public returns (uint id, address addr, address owner) {\n\t\tid = mapFromName[_name] - 1;\n\t\tvar t = badges[id];\n\t\taddr = t.addr;\n\t\towner = t.owner;\n\t}\n\n\tfunction meta(uint _id, bytes32 _key) view public returns (bytes32) {\n\t\treturn badges[_id].meta[_key];\n\t}\n\n\tfunction setAddress(uint _id, address _newAddr) onlyBadgeOwner(_id) whenAddressFree(_newAddr) public {\n\t\tvar oldAddr = badges[_id].addr;\n\t\tbadges[_id].addr = _newAddr;\n\t\tmapFromAddress[oldAddr] = 0;\n\t\tmapFromAddress[_newAddr] = _id;\n\t\temit AddressChanged(_id, _newAddr);\n\t}\n\n\tfunction setMeta(uint _id, bytes32 _key, bytes32 _value) onlyBadgeOwner(_id) public {\n\t\tbadges[_id].meta[_key] = _value;\n\t\temit MetaChanged(_id, _key, _value);\n\t}\n\n\tfunction drain() onlyOwner public {\n\t\tmsg.sender.transfer(this.balance);\n\t}\n\n\tmapping (address => uint) mapFromAddress;\n\tmapping (bytes32 => uint) mapFromName;\n\tBadge[] badges;\n\tuint public fee = 1 ether;\n}\n",
  "sourcePath": "/home/sorpaas/repos/badge-registry/contracts/BadgeReg.sol",
  "compiler": {
    "name": "solc",
    "version": "0.4.23+commit.124ca40d.Emscripten.clang"
  },
  "schemaVersion": "2.0.0",
  "updatedAt": "2018-05-07T14:40:03.288Z"
}